:020000040800F2
:10000000000500204501000891150008371300087D
:10001000E91400081D030008311F0008000000005B
:10002000000000000000000000000000AB19000804
:100030001F03000800000000A9190008AD190008FE
:100040005F0100085F0100085F0100085F01000810
:100050005F0100085F0100085F0100085F01000800
:100060005F0100085F0100085F0100085F010008F0
:100070005F0100085F0100085F0100085F010008E0
:100080005F0100085F0100085F0100085F010008D0
:100090005F0100085F0100085F0100085F010008C0
:1000A0005F0100085F0100085F0100085F010008B0
:1000B0005F0100085F0100085F0100085F010008A0
:1000C0005F0100085F0100085F0100085F01000890
:1000D0005F010008251F00085F0100085F0100089C
:1000E0005F0100085F0100085F0100085F01000870
:1000F0005F0100085F0100085F0100085F01000860
:100100005F0100085F0100085F0100085F0100084F
:100110005F0100085F0100085F0100085F0100083F
:100120005F0100085F0100085F0100085F0100082F
:10013000DFF80CD000F0E0F800480047B51F0008D9
:10014000000500200648804706480047FEE7FEE716
:10015000FEE7FEE7FEE7FEE7FEE7FEE7FEE7FEE777
:10016000051A00083101000840EA01039B0703D08B
:1001700009E008C9121F08C0042AFAD203E011F8E6
:10018000013B00F8013B521EF9D27047D2B201E0A8
:1001900000F8012B491EFBD270470022F6E710B58C
:1001A00013460A4604461946FFF7F0FF204610BDE5
:1001B000421C10F8011B0029FBD1801A704780EA0D
:1001C000010210B502F00043400022D04A001FD0C7
:1001D000010E01EB1261C0F35600C2F3560240F467
:1001E000000042F40002A0FB022000047F39140446
:1001F00000D0401C50EA124001D44000491EC2B257
:100200000C0604EBD010401C4008802A02D003E00A
:10021000002010BD20F00100002900DA0020184362
:1002200010BD420005D0C0F3C7525242914201DCDA
:100230000020704700EBC1507047C10F80EAE070AA
:100240000844CA079623002100F027B8962300220D
:10025000114600F022B800F0004220F00040C10D2D
:10026000C0F3160040F400007F2901DA0020704737
:10027000962903DCC1F19601C84001E09639884017
:10028000002AF4D0404270470029A8BF7047401CA4
:10029000490008BF20F00100704710B4B0FA80FC9C
:1002A00000FA0CF050EA010404BF10BC704749B1D9
:1002B000CCF1200421FA04F411FA0CF118BF012149
:1002C00021430843A3EB0C01CB1D4FEA00614FEA29
:1002D000102042BF002010BC704700EBC3501044F8
:1002E0000029A4BF10BC7047401C490008BF20F083
:1002F000010010BC70470000064C074D06E0E068A6
:1003000040F0010394E8070098471034AC42F6D35C
:10031000FFF712FFE820000808210008FEE77047F9
:10032000704700002DE9F05F90F8211000240229A9
:1003300003D004218163012485E001680A6822F06A
:100340000E020A6001680A6822F001020A603F4E4C
:100350003E4FB215DFF8F4C0DFF8F090DFF8ECA004
:10036000DFF8E8B0DFF8E4E00168783F1301150238
:10037000ACF1640CA9F15009AAF13C0AABF1280BCD
:10038000AEF1140E4FF48018B14227D9B9420ED005
:10039000614512D049451DD0514518D0594518D056
:1003A000714501D1424615E0294EB14201D10122E9
:1003B00010E0274E1436B14201D110220AE0244E3B
:1003C0002836B14206D0224A3C32914201D11A4627
:1003D00000E02A461E49091F0A602BE0B94213D0EB
:1003E000614517D0494522D051451DD059451DD0F2
:1003F000714501D142461AE0B14202D14FF08072FC
:1004000015E0134EB14201D1012210E0104E143616
:10041000B14201D110220AE00D4E2836B14206D079
:100420000B4A3C32914201D11A4600E02A46074964
:1004300080394A60012180F82110002180F82010C5
:10044000416B01B188472046BDE8F09F8000024023
:100450000804024070B5044600F014F90546601C1B
:1004600002D004480078044400F00CF9401BA0427C
:10047000FAD370BD240000202DE9F84FDFF8C891B1
:10048000002409F1040A0AF1040B23460F270BF19B
:10049000040ED1E00125A54006EA0502AA4276D164
:1004A000DFF8A8C14E68A6EB0C0866452BD00DDC22
:1004B000032E34D005DC36B3012E19D0022E2FD1F5
:1004C0001BE0112E16D0122E2AD119E0B8F5881F84
:1004D00019D006DCB8F5803F15D0B8F5801F1FD1C4
:1004E00011E0B8F5001F0ED0B8F5041F18D10AE0CE
:1004F000CB6815E0CB681B1D12E0CB6808330FE01A
:10050000CB680C330CE08B682BB1012B4FF0080348
:1005100003D0456104E0042302E0056100E000230C
:10052000FF2A01D8064601E000F104064FEA8405DF
:1005300001D9A5F12005D6F8008007FA05FC28EAC4
:100540000C0803FA05F548EA0508C6F800804D686E
:10055000ED0070D53E4DAE6946F00106AE61AD6965
:1005600024F0030605F0010500953A4D06EB050C55
:10057000DCF80850A607360F07FA06F825EA080542
:10058000DFF8D480404503D14FF0000825E052E069
:10059000DFF8C880404502D14FF001081DE0DFF8C8
:1005A000C080404502D14FF0020816E0DFF8B48069
:1005B000404502D14FF003080FE0DFF8AC80404522
:1005C00002D14FF0040808E0DFF8A080404502D1D6
:1005D0004FF0050801E04FF0060808FA06F848EA6F
:1005E0000508CCF808804D68D9F80060ED034D4649
:1005F00001D5164300E096432E604D68DAF800609E
:10060000AD03554601D5164300E096432E604D6874
:10061000DBF80060ED025D4601D5164300E096432D
:100620002E604D68DEF80060AD02754601D51643B8
:1006300000E096432E60641C0A681646E2407FF490
:1006400029AFBDE8F88F0000000401400000111040
:10065000001002400000014000080140000C014071
:10066000001001400014014000180140001C01402E
:100670008068084000D0012070470AB101617047CE
:100680000904FBE70148806870470000240000204F
:10069000024881680278114481607047240000207C
:1006A000074810B5016841F010010160032000F017
:1006B00075F8002000F006F800F024F8002010BDC6
:1006C0000020024070B50D4D04464FF47A71287831
:1006D000B1FBF0F00A490968B1FBF0F000F000FB53
:1006E00048B9102C07D200222146501E00F036F8DF
:1006F00000206C6070BD012070BD0000240000204F
:10070000300000200C4808B5816941F00101816189
:10071000816901F001010091C16941F08051C1611D
:10072000C06900F0805000900448416821F0E06109
:1007300041F00071416008BD00100240000001401E
:10074000002809DB00F01F020121914040098000D0
:1007500000F1E020C0F8001170470000F0B40E4B2B
:100760001B680C46C3F30223C3F10705042D00D90F
:100770000425191D072901D2002300E0DB1E0126F4
:1007800006FA05F1491E214099409E40761E16400A
:100790003143F0BC01F0CDBB0CED00E0064900F0A8
:1007A000070208684FF6FF03184040EA0220034A98
:1007B00010430860704700000CED00E00000FA05EF
:1007C000704700002DE9F0470F46050061D0434E09
:1007D000306800F00700B84209D2306820F0070006
:1007E00038433060306800F00700B84251D12868C3
:1007F0003B4C810712D5400703D5606840F4E060A8
:1008000060602878000703D5606840F4605060603D
:100810006068A96820F0F000084360602878C0078D
:1008200028D06868012810D02168022810D08907D4
:1008300000292EDA616821F0030101436160FFF7AE
:1008400021FF804641F288390DE021688903EFE7F6
:100850008901EDE7FFF716FFA0EB0801494502D932
:100860000320BDE8F0876068696800F00C00B0EB19
:10087000810FEFD1306800F00700B8420BD9306823
:1008800020F0070038433060306800F00700B842BD
:1008900001D00120E5E72878400705D56068E968C0
:1008A00020F4E060084360602878000706D560689F
:1008B000296920F4605040EAC100606000F03EF811
:1008C0006168084AC1F30311515CC84006490860D9
:1008D00006480068FFF7F6FE0020C2E7002002404D
:1008E00000100240D0200008300000202800002026
:1008F00001490120C864704700004242044805498C
:1009000000684968044AC1F30221515CC84070473D
:100910003000002000100240E02000080448054993
:1009200000684968044AC1F3C221515CC84070475D
:100930003000002000100240E020000812A185B025
:100940000FC98DE80F0014A0144A00680490516884
:10095000134801F00C03042B10D0082B0ED1C1F367
:100960008343C9031DF803000AD5516804AAC1F3E3
:100970004041515C0A4A5043B0FBF1F005B070476A
:1009800008494843FAE7000002030405060708097E
:100990000A0B0C0D0E0F1010010200000010024097
:1009A00000127A0000093D0010B5044CA068000652
:1009B00003D5FFF705FF8020A07210BD0010024094
:1009C0002DE9F84F040070D02078C04DC00749D001
:1009D0006868C0F38100012807D06868C0F381000F
:1009E000022809D16868C00306D52868800339D574
:1009F00060680028E7D035E06068B0F5803F0BD034
:100A000010B1B0F5A02F11D0286820F480302860F4
:100A1000286820F4802002E0286840F480302860B4
:100A2000606890B1FFF72EFE06460AE0286840F4A1
:100A300080202860F0E700BFFFF724FE801B6428B9
:100A400073D828688003F7D50CE0FFF71BFE064635
:100A500005E000BFFFF716FE801B6428F0D8286869
:100A60008003F7D420789A4E80074FF001094FF0A9
:100A7000000839D5686810F00C0F07D06868C0F31B
:100A80008100022809D16868C00306D4286880075D
:100A900014D52069012808D110E02069B0B1C6F84A
:100AA0000090FFF7EFFD074605E00AE1FFF7EAFDDA
:100AB000C01B0228C4D828688007F7D52868616958
:100AC00020F0F80040EAC10028600DE0C6F8008080
:100AD000FFF7D8FD074604E0FFF7D4FDC01B02284E
:100AE00023D828688007F7D4207800072CD57948C8
:100AF000A169D9B1C0F80090FFF7C4FD074604E032
:100B0000FFF7C0FDC01B02280FD8686A8007F7D521
:100B100071484FF4FA510068B0FBF1F0009000BF4B
:100B20000098411E0091FAD20EE080E0C0F80080EB
:100B3000FFF7A8FD074604E0FFF7A4FDC01B02284D
:100B400075D8686A8007F7D42078400760D5E869CF
:100B50000027C00008D4E86940F08050E861E869E7
:100B6000012700F0805000905C480168C90513D44B
:100B70000168834641F480710160FFF783FD82467E
:100B800006E000BFFFF77EFDA0EB0A0064284ED808
:100B9000DBF80000C005F5D5E06801280AD008B1EF
:100BA000052813D0286A20F001002862286A20F066
:100BB000040002E0286A40F001002862E06841F287
:100BC000883B98B1FFF75EFD82460BE0286A40F053
:100BD00004002862EEE700BFFFF754FDA0EB0A0116
:100BE00059455AD8286A8007F6D50CE0FFF74AFD28
:100BF000824605E0FFF746FDA0EB0A0159454CD8B7
:100C0000286A8007F6D41FB1E86920F08050E861B7
:100C1000E06988B36968C1F38101022944D00228E0
:100C2000C6F8608004D0FFF72DFD044638E034E0BC
:100C3000FFF728FD074604E0FFF724FDC01B02284C
:100C40002BD828688001F7D4206AB0F5803F05D101
:100C50006868A16820F4003008436860D4E908019E
:100C60000843696821F4741108436860C6F860900D
:100C7000FFF708FD044606E025E000BFFFF702FD90
:100C8000001B022809D828688001F7D51BE000BFA7
:100C9000FFF7F8FC001B022802D90320BDE8F88FFB
:100CA00028688001F4D40EE00128F7D06868226A31
:100CB00000F48031914204D1616A00F470108842DE
:100CC00001D00120EAE70020E8E700000010024020
:100CD0000000424280044242300000200070004088
:100CE00010B5401EB0F1807F01D3012010BD4FF040
:100CF000E02460610F21601701F01BF90020A06162
:100D000007202061002010BD70B590F83C20012A1A
:100D100019D0012400F83C4F0222427050F83C3CAC
:100D20005A689D6822F070060A684968324325F0C7
:100D3000800529435A6050F83C2C91604470002192
:100D40000170084670BD022070BD10B5040003D0CC
:100D500094F83D0010B107E0012010BD002084F898
:100D60003C00204600F00CF8022084F83D00211DD4
:100D7000206800F06BFE012084F83D00002010BDCB
:100D800008B50C4A01680C48914207D1C16941F08D
:100D90000201C161C06900F0020009E0074A914206
:100DA00007D1C16941F02001C161C06900F0200094
:100DB000009008BD000400400010024000140040F4
:100DC000022180F83D1001688A6802F00702062AB5
:100DD00003D00A6842F001020A60012180F83D1048
:100DE00000207047022180F83D1001680A6A41F234
:100DF00011131A4207D10A6A9B101A4203D10A68DA
:100E000022F001020A60012180F83D1000207047A5
:100E100070B5044690F83C00012817D0012584F8ED
:100E20003C50022084F83D002068826822F077025E
:100E300022F47F4282600868502830D00DDC2028E0
:100E40004DD005DC98B310283BD148E0022070BD9E
:100E5000302844D0402834D139E0602828D0702888
:100E600006D0B0F5805F2CD0B0F5005F29D10AE044
:100E7000CB68D1E90121206800F03BFE2068816841
:100E800041F0770109E0CB68D1E90121206800F049
:100E900030FE2068816841F48041816011E0CA68B9
:100EA0004968206800F0FAFE5021206807E016E04B
:100EB000CA684968206800F002FF6021206800F0DD
:100EC00022FE84F83D50002084F83C0070BDCA68C2
:100ED0004968206800F0E2FE40212068EFE72268C0
:100EE00001461046EBE7000000B585B000210091F7
:100EF00001910291039100680B49884211D10B487E
:100F0000816941F0080181618069022100F00800D7
:100F100004900320CDE90001039069460448FFF7DF
:100F2000ABFA05B000BD0000000400400010024014
:100F3000000C014070B5044690F83C000D460128B5
:100F40000DD0012684F83C60022084F83D0042B1B7
:100F5000042A18D0082A2AD00C2A4DD139E00220C0
:100F600070BD206800F0D8FD2068816941F008015B
:100F700081612068816921F00401816120688169B3
:100F80002A69114311E0206800F0F6FD20688169AC
:100F900041F4006181612068816921F4806181618F
:100FA000206881692A6941EA0221816124E0206880
:100FB00000F018FE2068C16941F00801C161206895
:100FC000C16921F00401C1612068C1692A69114326
:100FD00011E0206800F03AFE2068C16941F4006128
:100FE000C1612068C16921F48061C1612068C16963
:100FF0002A6941EA0221C16184F83D60002084F839
:101000003C0070BD10B5040003D094F83D0010B151
:1010100007E0012010BD002084F83C00204600F0CD
:101020000CF8022084F83D00211D206800F00EFD20
:10103000012084F83D00002010BD704710B5044623
:101040000068012200F048FD0B492068884202D068
:101050000A49884203D1416C41F40041416420684F
:10106000816801F00701062903D0016841F0010100
:101070000160002010BD0000002C01400034014040
:101080007047000070B5026804461068D168536963
:1010900010F00F0F50D003F0010501F490763543A6
:1010A0005DD0C20705D0CA0503D5E26B42F001024C
:1010B000E263420705D5DA0703D0E26B42F0020291
:1010C000E263820705D5DA0703D0E26B42F004023F
:1010D000E263020705D5DA0703D0E26B42F00802AB
:1010E000E263E26B002A33D0800604D5880602D57D
:1010F000204600F00CFE20684069E16BC0F38010D0
:10110000090700D428B3204600F0F3FD20684169A8
:1011100049061AD5416921F040014161606BA0B1D7
:101120001B494163606BFFF7FDF8002810D0606B2E
:10113000416BBDE870400847830610D58B060ED57D
:101140002046BDE8704000F0E2BD2046FFF798FF62
:1011500070BD2046FFF794FF0020E06370BD0306DA
:1011600006D50B0604D52046BDE8704000F076BEDB
:101170004006F3D54806F1D5D168204621F040015C
:10118000D160202184F8391000F0D4F870BD00003F
:10119000E31C000870B5040004D094F83900002561
:1011A00010B106E0012070BD84F83850204600F0F0
:1011B00023F8242084F839002068C16821F4005104
:1011C000C160204600F0EEFD2068016921F49041E5
:1011D00001612068416921F02A0141612068C168EC
:1011E00041F40051C160E563202084F8390084F89F
:1011F0003A00002070BD000030B585B00024009496
:101200000194029403940068184988422CD118482C
:10121000816941F480418161816901F480410491D7
:10122000816941F0040181618069124D00F0040080
:1012300004904FF40070009002200190032003906E
:1012400069462846FFF718F92815CDE900046946D4
:1012500028460294FFF710F9002211462520FFF7D7
:101260007DFA2520FFF76CFA05B030BD003801404B
:10127000001002400008014070472DE9F843044681
:1012800090F839001F4616460D46202850D1A5B1CA
:101290009EB194F8380001284AD0012084F8380023
:1012A0004FF00008C4F83C80212084F83900FFF793
:1012B000E9F9A6848146E68426E00120BDE8F883AA
:1012C000E08C401EE084A0684B46B0F5805F4FF094
:1012D00000024FF080012046009703D000F0EFFDA0
:1012E000E8B90DE000F0EBFDC8B928882168C0F32B
:1012F00008004860206908B16D1C05E0AD1C03E0E2
:10130000216815F8010B4860E08C0028D8D14B46C5
:10131000002240212046009700F0D1FD08B10320B3
:10132000CCE7202084F8390084F838800020C5E715
:101330000220C3E77047FEE770B586B000241C4862
:101340000094019402940394816941F02001816129
:10135000816901F020010491816941F008018161F6
:10136000816901F008010491816941F00401816102
:101370008069104E00F004004EF2E0150490002247
:1013800029463046FFF779F9B014CDE900046946E3
:1013900030460294FFF770F801200095CDE9010472
:1013A0000320039069463046FFF766F806B070BD2B
:1013B00000100240000C014010B58EB000240794CC
:1013C000089409940A940B941C2168460C94FEF727
:1013D000E4FE2448224901604721C0E901144FF48A
:1013E0006171C0E9031480218161FFF7AEFC08B18F
:1013F000FEF796FF4FF48050079007A91948FFF7B2
:1014000007FD08B1FEF78CFF1648FFF7FBFD08B19A
:10141000FEF786FF0B940BA912480C94FFF774FC9F
:1014200008B1FEF77DFF602000904FF4FA70CDE91F
:101430000104082269460B480494FFF77BFD08B1BC
:10144000FEF76EFF0C2269460648FFF773FD08B1F0
:10145000FEF766FF0348FFF747FD0EB010BD000022
:1014600000040040400000201CB500240F480094F8
:101470000D4901940160A721C0E901144FF6FF71E5
:10148000C16080218161FFF760FC08B1FEF748FF71
:101490000094694605480194FFF736FC002801D006
:1014A000FEF73EFF1CBD000000140040800000203D
:1014B0000C4810B50A4901604FF4E1314160002148
:1014C00081600C22C160C0E904128161C161FFF733
:1014D00061FE002803D0BDE81040FEF721BF10BD1B
:1014E00000380140C0000020FEE700002DE9F04177
:1014F0004FF461735C1EC3F1000C0CF101029842C1
:1015000001DB254604E0604501DC154600E00546A8
:101510001D4E1E4F994206DA614501DC14460BE070
:101520000C1E07D008DD012220213046FFF7A5F868
:10153000002207E00022F7E7002220213046FFF7D3
:101540009CF8012240213046FFF797F83868C563C0
:10155000281E4FF4807507D008DD00228021304618
:10156000FFF78BF8012207E0002200E00122802132
:101570003046FFF782F8002229463046FFF77DF813
:1015800038680464BDE8F081000C01404000002090
:10159000FFF70ABA0149085C7047000034000020D8
:1015A0000020044902460A54401CC0B20928FAD35C
:1015B00070470000340000202DE9F84F80460120DC
:1015C000ADF80000234F00217970ADF800004FF412
:1015D0000059214CC5034FF4805A4FF6FF7630E096
:1015E000BDF8000010EA080F01D0012200E000223F
:1015F00049462046FFF741F8012229462046FFF7D9
:101600003CF8052000F0B8FC002229462046FFF7F0
:1016100034F8052000F0B0FC012229462046FFF7EF
:101620002CF851462046FFF723F820B17878BDF812
:10163000001008437870BDF8000006EA4000ADF8DD
:101640000000BDF80000FF28CAD9BDE8F84F1020FF
:1016500000F092BC34000020000C014070B5FFF790
:101660009FFF00F083F80B480B4BB0F803100A48BB
:101670009B1C01800020012413F8105000F1010090
:101680006D1E04FA05F20A42C0B202D01028F3D34C
:10169000002070BD340000200000002070B5184DFF
:1016A0004FF48044002221462846FEF7E6FF102032
:1016B00000F062FC0120FFF77FFF4320FFF77CFF73
:1016C0000020FFF779FF0120FFF776FF0020FFF7EA
:1016D00073FF0020FFF770FF0020FFF76DFF002071
:1016E000FFF76AFF0020FFF767FF01222146284627
:1016F000FEF7C3FFBDE87040102000F03DBC0000C5
:10170000000C014070B5184D4FF480440022214672
:101710002846FEF7B2FF102000F02EFC0120FFF754
:101720004BFF4320FFF748FF0020FFF745FF002055
:10173000FFF742FF5A20FFF73FFF5A20FFF73CFF19
:101740005A20FFF739FF5A20FFF736FF5A20FFF7DC
:1017500033FF012221462846FEF78FFFBDE8704087
:10176000102000F009BC0000000C01402DE9FC47EE
:1017700000208DF800000127ADF804702F4C0246C0
:101780004FF4804A51462046FEF777FF0120FFF7CD
:1017900013FF4220FFF710FF02208DF800008503A1
:1017A0004FF48059DFF898804FF6FF763AE000BF9B
:1017B000ADF804702AE0012229462046FEF75DFFBD
:1017C000052000F0D9FB002229462046FEF755FFF0
:1017D000052000F0D1FB012229462046FEF74DFFEF
:1017E00049462046FEF744FF50B19DF80010BDF871
:1017F000042018F8011011439DF8002008F8021089
:10180000BDF8040006EA4000ADF80400BDF804008D
:10181000FF28D0D9102000F0AFFB9DF80000401C3D
:101820008DF800009DF800000928C1D302B0514690
:101830002046BDE8F0470122FEF71FBF000C014023
:101840003400002070B50D4D4FF480440022214635
:101850002846FEF712FF0120FFF7AEFE4220FFF7F9
:10186000ABFE012221462846FEF707FF04484078D8
:10187000732801D0012070BD002070BD000C014014
:101880003400002010B500F00FF800F00DF800F063
:101890000BF8FFF703FF00F02FF800F05DF8BDE84C
:1018A0001040FFF72FBF000070B5124D4FF4804479
:1018B000002221462846FEF7E0FE102000F05CFBE7
:1018C0000120FFF779FE4220FFF776FE0020FFF7A8
:1018D00073FE0020FFF770FE0020FFF76DFE01226F
:1018E00021462846FEF7C9FEBDE87040102000F0F2
:1018F00043BB0000000C014070B5164D4FF480440E
:10190000002221462846FEF7B8FE0120FFF754FECC
:101910004420FFF751FE0020FFF74EFE0120FFF7A5
:101920004BFEEE20FFF748FE0020FFF745FE0020AB
:10193000FFF742FE0020FFF73FFE0020FFF73CFECE
:10194000012221462846FEF798FEBDE8704010208F
:1019500000F012BB000C014070B5124D4FF48044F2
:10196000002221462846FEF788FE102000F004FBE6
:101970000120FFF721FE4D20FFF71EFE0020FFF79C
:101980001BFE0020FFF718FE0120FFF715FE0122C5
:1019900021462846FEF771FEBDE87040102000F099
:1019A000EBBA0000000C014070477047FEF770BEB4
:1019B00030B58FB028216846FEF7EFFB14210AA846
:1019C000FEF7EBFB01210804CDE90010002402948E
:1019D00002250491CDE907504FF4E01009906846C4
:1019E000FEF7EEFF0F20CDE90A056802CDE90C40B5
:1019F00002210AA80E94FEF7E5FEFEF779FF0FB06C
:101A000030BD00000D48016841F0010101604168EE
:101A10000B4A1140416001680A4A114001600168A7
:101A200021F480210160416821F4FE0141604FF4FE
:101A30001F0181600449C003086070470010024024
:101A40000000FFF8FFFFF6FE08ED00E0F0B50268C9
:101A50001C4B1D4D1D4E1E4F1E4C4FF0804C98428E
:101A600009D0A04207D0604505D0A84203D0B042BB
:101A700001D0B84204D122F0700E4A6842EA0E0248
:101A8000984209D0A04207D0604505D0A84203D0B3
:101A9000B04201D0B84203D122F44075CA682A434B
:101AA0004D6922F080022A4302608A68C2620A6895
:101AB0008262984201D0A04201D1096901630121EB
:101AC0004161F0BD002C01400004004000080040CE
:101AD000000C00400034014010B501F01F0301214B
:101AE000046A99408C430462016A9A40114301627E
:101AF00010BD10B5846842EA032224F47F440A43EF
:101B00002243826010BD826822F070020A4342F0D4
:101B10000701816070470000F0B5026A22F00102FF
:101B20000262036A42688469124E24F073050C68ED
:101B30002C4323F002058B682B430D4DA84201D0A6
:101B4000B04205D123F00807CB683B4323F00403E0
:101B5000A84201D0B04205D14D6922F4407215432C
:101B60008A692A4342608461496841630362F0BD27
:101B7000002C014000340140F0B5026A22F010024E
:101B80000262026A436884690D6824F4E64444EA08
:101B900005248D6822F0200242EA05120F4D104EF6
:101BA000A84201D0B04206D1CF6822F0800242EABA
:101BB000071222F04002A84201D0B04207D14D697D
:101BC00023F4406343EA85038D6943EA8503436058
:101BD0008461496881630262F0BD0000002C01400D
:101BE00000340140F0B5026A22F480720262026A97
:101BF0004368C46922F4007224F073050C68124E25
:101C00002C438D6842EA05220E4DA84201D0B04215
:101C100006D1CF6822F4006242EA072222F48062F1
:101C2000A84201D0B04207D14D6923F4405343EAA2
:101C300005138D6943EA05134360C4614968C163B4
:101C40000262F0BD002C01400034014030B5026A50
:101C500022F480520262046A4268C3690D6823F468
:101C6000E64343EA05238D6824F4005444EA05342E
:101C7000084DA84202D0084DA84204D14D6922F473
:101C8000804242EA85124260C3614968016404628D
:101C900030BD0000002C01400034014010B5036A43
:101CA000046A24F001040462846924F0F00444EA24
:101CB000021423F00A020A438461026210BD10B5C7
:101CC000036A23F0100303628369046A23F47043F8
:101CD00043EA023224F0A00343EA01118261016267
:101CE00010BD10B5406A0021C185C184FFF7C8F955
:101CF00010BD0168CA6822F49072CA6001684A691E
:101D000022F001024A61202180F83A10704710B594
:101D100090F83A10222901D0022010BD8168B1F557
:101D2000805F11D00169002901681FD0496801F066
:101D30007F03816A4A1C82620B70C18D491E0904AF
:101D4000090CC18518D02BE00269816A002A02685B
:101D5000526805D0D2B20A80816A491C8162ECE7E0
:101D6000C2F308020A80816A891CF7E74A68816A1F
:101D70004B1C83620A70E0E70168CA6822F0200207
:101D8000CA600168CA6822F48072CA6001684A6940
:101D900022F001024A61202180F83A10FFF76CFA24
:101DA000002010BD2DE9F041044600680169E26899
:101DB00021F44051114301612169A0680843616920
:101DC00008432168CA6841F20C639A430243CA601F
:101DD00020684169A26921F44071114341611E49A3
:101DE000206864253226884202D1FEF797FD01E083
:101DF000FEF784FD00EBC00101EB001160686FF09D
:101E000018078000B1FBF0F2B2FBF5F2B1FBF0F382
:101E10007A4303EB8202B1FBF0F306EB0212B2FB52
:101E2000F5F2B3FBF5F302F0F00202EB0312B1FBA3
:101E3000F0F3B1FBF0F0B0FBF5F0784303EB80007A
:101E400006EB0010B0FBF5F0216800F00F00104425
:101E50008860BDE8F08100000038014090F839103A
:101E6000212901D0022070478168B1F5805F016AA5
:101E70000BD04A1C0262026809785160C18C491E6D
:101E80000904090CC1840ED017E009880268C1F367
:101E90000801516001690029016A02D0491C0162F0
:101EA000ECE7891CFBE70168CA6822F08002CA607F
:101EB0000068C16841F04001C160002070472DE911
:101EC000F041984617460E460446069D1DE0681CE4
:101ED0001BD02DB1FEF7D6FBA0EB0800A84214D909
:101EE0002068C16821F4D071C1602068416921F087
:101EF00001014161202084F8390084F83A00002073
:101F000084F838000320BDE8F0812068006836EAD4
:101F1000000004D00020B842D9D00020F3E701200F
:101F2000F9E700000148FFF7ADB80000C00000204D
:101F3000FEE70907090E002804DB00F1E02080F825
:101F40000014704700F00F0000F1E02080F8141D2D
:101F5000704702E008C8121F08C1002AFAD1704772
:101F60007047002001E001C1121F002AFBD1704719
:101F7000002800DA4042704770B54FF6FA710A4DFA
:101F8000081A84B2286844622846FEF719FF4FF603
:101F9000F971286801E0426A94B28C42FBD3BDE833
:101FA00070400148FEF71EBF80000020020A0A7040
:101FB000487070478EB0FEF773FBFFF7F9FCFFF730
:101FC000BBF9FFF7F9F9FFF74FFAFFF771FA3C4851
:101FD000FEF7F6FE3B48FEF7F3FE08213948FFF70F
:101FE0002DF80C213748FFF729F8FFF74BFC00BF0D
:101FF000FFF728FC38B100210846FFF777FA3220B6
:10200000FEF728FAF4E73220FEF724FAFFF726FB62
:102010000820FFF7BFFA7F38FFF7AAFFFEF716F98F
:102020006FF00601FEF7FDF805460520FFF7B2FA4E
:102030008038C0EBC000FEF700F92946FEF7BFF874
:10204000FEF709F905B20820FFF7A4FAC0F17F00F6
:10205000C0EBC000002804DD002D0ADA284404B2D9
:102060000DE02ADA002D04DA41190CB201462046AF
:1020700003E00446401B01B2F9E7FFF737FA69466F
:102080002046FFF793FF6846FEF792F882B24FF4BE
:102090007A752B4669460C48FFF7EFF834220BA1FE
:1020A0006846FEF761F86846FEF782F882B22B4672
:1020B00069460548FFF7E1F89AE700210846DCE7A2
:1020C0008000002040000020C00000200A00000026
:1020D00000000000000000000102030406070809D8
:1020E0000000000001020304082100080000002095
:1020F00034000000521F00083C210008340000207A
:10210000CC040000621F0008000001000200030070
:102110000400050006000700080009000A000B0083
:102120000C000D000E000F00100000000100000068
:0C21300010000000000000000024F4007B
:0400000508000131BD
:00000001FF
